{
  "_format": "hh-sol-artifact-1",
  "contractName": "IntelliVaultStaker",
  "sourceName": "contracts/IntelliVaultStaker.sol",
  "abi": [
    {
      "inputs": [],
      "stateMutability": "nonpayable",
      "type": "constructor"
    },
    {
      "anonymous": false,
      "inputs": [
        {
          "indexed": true,
          "internalType": "address",
          "name": "user",
          "type": "address"
        },
        {
          "indexed": false,
          "internalType": "uint256",
          "name": "amount",
          "type": "uint256"
        }
      ],
      "name": "Staked",
      "type": "event"
    },
    {
      "anonymous": false,
      "inputs": [
        {
          "indexed": true,
          "internalType": "address",
          "name": "user",
          "type": "address"
        },
        {
          "indexed": false,
          "internalType": "uint256",
          "name": "amount",
          "type": "uint256"
        }
      ],
      "name": "Withdrawn",
      "type": "event"
    },
    {
      "inputs": [
        {
          "internalType": "address",
          "name": "user",
          "type": "address"
        }
      ],
      "name": "checkStake",
      "outputs": [
        {
          "internalType": "uint256",
          "name": "",
          "type": "uint256"
        }
      ],
      "stateMutability": "view",
      "type": "function"
    },
    {
      "inputs": [],
      "name": "owner",
      "outputs": [
        {
          "internalType": "address",
          "name": "",
          "type": "address"
        }
      ],
      "stateMutability": "view",
      "type": "function"
    },
    {
      "inputs": [],
      "name": "stake",
      "outputs": [],
      "stateMutability": "payable",
      "type": "function"
    },
    {
      "inputs": [
        {
          "internalType": "address",
          "name": "",
          "type": "address"
        }
      ],
      "name": "stakes",
      "outputs": [
        {
          "internalType": "uint256",
          "name": "",
          "type": "uint256"
        }
      ],
      "stateMutability": "view",
      "type": "function"
    },
    {
      "inputs": [
        {
          "internalType": "address",
          "name": "recipient",
          "type": "address"
        },
        {
          "internalType": "uint256",
          "name": "amount",
          "type": "uint256"
        }
      ],
      "name": "transferBDAG",
      "outputs": [],
      "stateMutability": "nonpayable",
      "type": "function"
    },
    {
      "inputs": [
        {
          "internalType": "uint256",
          "name": "amount",
          "type": "uint256"
        }
      ],
      "name": "withdraw",
      "outputs": [],
      "stateMutability": "nonpayable",
      "type": "function"
    }
  ],
  "bytecode": "0x608060405234801561001057600080fd5b50336000806101000a81548173ffffffffffffffffffffffffffffffffffffffff021916908373ffffffffffffffffffffffffffffffffffffffff16021790555061094b806100606000396000f3fe6080604052600436106100555760003560e01c806316934fc41461005a5780632e1a7d4d146100975780633a4b66f1146100c057806382fe13b7146100ca5780638da5cb5b146100f357806390d96d761461011e575b600080fd5b34801561006657600080fd5b50610081600480360381019061007c9190610599565b61015b565b60405161008e91906105df565b60405180910390f35b3480156100a357600080fd5b506100be60048036038101906100b99190610626565b610173565b005b6100c86102e3565b005b3480156100d657600080fd5b506100f160048036038101906100ec9190610653565b6103cc565b005b3480156100ff57600080fd5b506101086104c9565b60405161011591906106a2565b60405180910390f35b34801561012a57600080fd5b5061014560048036038101906101409190610599565b6104ed565b60405161015291906105df565b60405180910390f35b60016020528060005260406000206000915090505481565b80600160003373ffffffffffffffffffffffffffffffffffffffff1673ffffffffffffffffffffffffffffffffffffffff1681526020019081526020016000205410156101f5576040517f08c379a00000000000000000000000000000000000000000000000000000000081526004016101ec9061071a565b60405180910390fd5b80600160003373ffffffffffffffffffffffffffffffffffffffff1673ffffffffffffffffffffffffffffffffffffffff16815260200190815260200160002060008282546102449190610769565b925050819055503373ffffffffffffffffffffffffffffffffffffffff166108fc829081150290604051600060405180830381858888f19350505050158015610291573d6000803e3d6000fd5b503373ffffffffffffffffffffffffffffffffffffffff167f7084f5476618d8e60b11ef0d7d3f06914655adb8793e28ff7f018d4c76d505d5826040516102d891906105df565b60405180910390a250565b60003411610326576040517f08c379a000000000000000000000000000000000000000000000000000000000815260040161031d906107e9565b60405180910390fd5b34600160003373ffffffffffffffffffffffffffffffffffffffff1673ffffffffffffffffffffffffffffffffffffffff16815260200190815260200160002060008282546103759190610809565b925050819055503373ffffffffffffffffffffffffffffffffffffffff167f9e71bc8eea02a63969f509818f2dafb9254532904319f9dbda79b67bd34a5f3d346040516103c291906105df565b60405180910390a2565b600073ffffffffffffffffffffffffffffffffffffffff168273ffffffffffffffffffffffffffffffffffffffff160361043b576040517f08c379a000000000000000000000000000000000000000000000000000000000815260040161043290610889565b60405180910390fd5b8047101561047e576040517f08c379a0000000000000000000000000000000000000000000000000000000008152600401610475906108f5565b60405180910390fd5b8173ffffffffffffffffffffffffffffffffffffffff166108fc829081150290604051600060405180830381858888f193505050501580156104c4573d6000803e3d6000fd5b505050565b60008054906101000a900473ffffffffffffffffffffffffffffffffffffffff1681565b6000600160008373ffffffffffffffffffffffffffffffffffffffff1673ffffffffffffffffffffffffffffffffffffffff168152602001908152602001600020549050919050565b600080fd5b600073ffffffffffffffffffffffffffffffffffffffff82169050919050565b60006105668261053b565b9050919050565b6105768161055b565b811461058157600080fd5b50565b6000813590506105938161056d565b92915050565b6000602082840312156105af576105ae610536565b5b60006105bd84828501610584565b91505092915050565b6000819050919050565b6105d9816105c6565b82525050565b60006020820190506105f460008301846105d0565b92915050565b610603816105c6565b811461060e57600080fd5b50565b600081359050610620816105fa565b92915050565b60006020828403121561063c5761063b610536565b5b600061064a84828501610611565b91505092915050565b6000806040838503121561066a57610669610536565b5b600061067885828601610584565b925050602061068985828601610611565b9150509250929050565b61069c8161055b565b82525050565b60006020820190506106b76000830184610693565b92915050565b600082825260208201905092915050565b7f4e6f7420656e6f756768207374616b6564000000000000000000000000000000600082015250565b60006107046011836106bd565b915061070f826106ce565b602082019050919050565b60006020820190508181036000830152610733816106f7565b9050919050565b7f4e487b7100000000000000000000000000000000000000000000000000000000600052601160045260246000fd5b6000610774826105c6565b915061077f836105c6565b92508282039050818111156107975761079661073a565b5b92915050565b7f4d7573742073656e64204244414720746f6b656e730000000000000000000000600082015250565b60006107d36015836106bd565b91506107de8261079d565b602082019050919050565b60006020820190508181036000830152610802816107c6565b9050919050565b6000610814826105c6565b915061081f836105c6565b92508282019050808211156108375761083661073a565b5b92915050565b7f496e76616c696420726563697069656e74000000000000000000000000000000600082015250565b60006108736011836106bd565b915061087e8261083d565b602082019050919050565b600060208201905081810360008301526108a281610866565b9050919050565b7f496e73756666696369656e7420636f6e74726163742062616c616e6365000000600082015250565b60006108df601d836106bd565b91506108ea826108a9565b602082019050919050565b6000602082019050818103600083015261090e816108d2565b905091905056fea2646970667358221220e8654fad7d2bec2a35c4effe239e9fdf95e96f31e5a716331c27d1a18fe81ffe64736f6c63430008140033",
  "linkReferences": {},
  "deployedLinkReferences": {}
}